{
  "_format": "hh-sol-artifact-1",
  "contractName": "DDNS",
  "sourceName": "contracts/DDNS.sol",
  "abi": [
    {
      "inputs": [
        {
          "internalType": "uint256",
          "name": "",
          "type": "uint256"
        }
      ],
      "name": "domainRecords",
      "outputs": [
        {
          "internalType": "string",
          "name": "domain",
          "type": "string"
        },
        {
          "internalType": "string",
          "name": "ip",
          "type": "string"
        },
        {
          "internalType": "address",
          "name": "owner",
          "type": "address"
        },
        {
          "internalType": "bool",
          "name": "exists",
          "type": "bool"
        }
      ],
      "stateMutability": "view",
      "type": "function"
    },
    {
      "inputs": [],
      "name": "getAllDomains",
      "outputs": [
        {
          "components": [
            {
              "internalType": "string",
              "name": "domain",
              "type": "string"
            },
            {
              "internalType": "string",
              "name": "ip",
              "type": "string"
            },
            {
              "internalType": "address",
              "name": "owner",
              "type": "address"
            },
            {
              "internalType": "bool",
              "name": "exists",
              "type": "bool"
            }
          ],
          "internalType": "struct DDNS.DomainRecord[]",
          "name": "",
          "type": "tuple[]"
        }
      ],
      "stateMutability": "view",
      "type": "function"
    },
    {
      "inputs": [
        {
          "internalType": "string",
          "name": "domain",
          "type": "string"
        }
      ],
      "name": "getDomainInfo",
      "outputs": [
        {
          "components": [
            {
              "internalType": "string",
              "name": "domain",
              "type": "string"
            },
            {
              "internalType": "string",
              "name": "ip",
              "type": "string"
            },
            {
              "internalType": "address",
              "name": "owner",
              "type": "address"
            },
            {
              "internalType": "bool",
              "name": "exists",
              "type": "bool"
            }
          ],
          "internalType": "struct DDNS.DomainRecord",
          "name": "",
          "type": "tuple"
        }
      ],
      "stateMutability": "view",
      "type": "function"
    },
    {
      "inputs": [
        {
          "internalType": "string",
          "name": "domain",
          "type": "string"
        },
        {
          "internalType": "string",
          "name": "ip",
          "type": "string"
        }
      ],
      "name": "registerDomain",
      "outputs": [],
      "stateMutability": "nonpayable",
      "type": "function"
    },
    {
      "inputs": [
        {
          "internalType": "string",
          "name": "domain",
          "type": "string"
        }
      ],
      "name": "resolve",
      "outputs": [
        {
          "internalType": "string",
          "name": "",
          "type": "string"
        }
      ],
      "stateMutability": "view",
      "type": "function"
    },
    {
      "inputs": [
        {
          "internalType": "string",
          "name": "domain",
          "type": "string"
        },
        {
          "internalType": "string",
          "name": "newIP",
          "type": "string"
        }
      ],
      "name": "updateDomain",
      "outputs": [],
      "stateMutability": "nonpayable",
      "type": "function"
    }
  ],
  "bytecode": "0x6080604052348015600f57600080fd5b506118868061001f6000396000f3fe608060405234801561001057600080fd5b50600436106100625760003560e01c8063461a4478146100675780634889e192146100975780635a018e6a146100c757806387a3d555146100e55780639774622f14610101578063f5563d5a1461011d575b600080fd5b610081600480360381019061007c9190610d40565b610150565b60405161008e9190610e1d565b60405180910390f35b6100b160048036038101906100ac9190610d40565b6102c5565b6040516100be9190610f4f565b60405180910390f35b6100cf610554565b6040516100dc919061109d565b60405180910390f35b6100ff60048036038101906100fa91906110bf565b610748565b005b61011b600480360381019061011691906110bf565b61095d565b005b61013760048036038101906101329190611176565b610b14565b60405161014794939291906111c1565b60405180910390f35b6060600060018484604051610166929190611253565b9081526020016040518091039020549050600081141580156101c357506000600182610192919061129b565b815481106101a3576101a26112cf565b5b906000526020600020906003020160020160149054906101000a900460ff165b610202576040517f08c379a00000000000000000000000000000000000000000000000000000000081526004016101f99061134a565b60405180910390fd5b6000600182610211919061129b565b81548110610222576102216112cf565b5b9060005260206000209060030201600101805461023e90611399565b80601f016020809104026020016040519081016040528092919081815260200182805461026a90611399565b80156102b75780601f1061028c576101008083540402835291602001916102b7565b820191906000526020600020905b81548152906001019060200180831161029a57829003601f168201915b505050505091505092915050565b6102cd610c91565b6000600184846040516102e1929190611253565b90815260200160405180910390205490506000811415801561033e5750600060018261030d919061129b565b8154811061031e5761031d6112cf565b5b906000526020600020906003020160020160149054906101000a900460ff165b61037d576040517f08c379a00000000000000000000000000000000000000000000000000000000081526004016103749061134a565b60405180910390fd5b600060018261038c919061129b565b8154811061039d5761039c6112cf565b5b90600052602060002090600302016040518060800160405290816000820180546103c690611399565b80601f01602080910402602001604051908101604052809291908181526020018280546103f290611399565b801561043f5780601f106104145761010080835404028352916020019161043f565b820191906000526020600020905b81548152906001019060200180831161042257829003601f168201915b5050505050815260200160018201805461045890611399565b80601f016020809104026020016040519081016040528092919081815260200182805461048490611399565b80156104d15780601f106104a6576101008083540402835291602001916104d1565b820191906000526020600020905b8154815290600101906020018083116104b457829003601f168201915b505050505081526020016002820160009054906101000a900473ffffffffffffffffffffffffffffffffffffffff1673ffffffffffffffffffffffffffffffffffffffff1673ffffffffffffffffffffffffffffffffffffffff1681526020016002820160149054906101000a900460ff16151515158152505091505092915050565b60606000805480602002602001604051908101604052809291908181526020016000905b8282101561073f57838290600052602060002090600302016040518060800160405290816000820180546105ab90611399565b80601f01602080910402602001604051908101604052809291908181526020018280546105d790611399565b80156106245780601f106105f957610100808354040283529160200191610624565b820191906000526020600020905b81548152906001019060200180831161060757829003601f168201915b5050505050815260200160018201805461063d90611399565b80601f016020809104026020016040519081016040528092919081815260200182805461066990611399565b80156106b65780601f1061068b576101008083540402835291602001916106b6565b820191906000526020600020905b81548152906001019060200180831161069957829003601f168201915b505050505081526020016002820160009054906101000a900473ffffffffffffffffffffffffffffffffffffffff1673ffffffffffffffffffffffffffffffffffffffff1673ffffffffffffffffffffffffffffffffffffffff1681526020016002820160149054906101000a900460ff16151515158152505081526020019060010190610578565b50505050905090565b60006001858560405161075c929190611253565b908152602001604051809103902054146107ab576040517f08c379a00000000000000000000000000000000000000000000000000000000081526004016107a290611416565b60405180910390fd5b6000604051806080016040528086868080601f016020809104026020016040519081016040528093929190818152602001838380828437600081840152601f19601f82011690508083019250505050505050815260200184848080601f016020809104026020016040519081016040528093929190818152602001838380828437600081840152601f19601f8201169050808301925050505050505081526020013373ffffffffffffffffffffffffffffffffffffffff16815260200160011515815250908060018154018082558091505060019003906000526020600020906003020160009091909190915060008201518160000190816108ad9190611611565b5060208201518160010190816108c39190611611565b5060408201518160020160006101000a81548173ffffffffffffffffffffffffffffffffffffffff021916908373ffffffffffffffffffffffffffffffffffffffff16021790555060608201518160020160146101000a81548160ff021916908315150217905550505060008054905060018585604051610945929190611253565b90815260200160405180910390208190555050505050565b600060018585604051610971929190611253565b9081526020016040518091039020549050600081141580156109ce5750600060018261099d919061129b565b815481106109ae576109ad6112cf565b5b906000526020600020906003020160020160149054906101000a900460ff165b610a0d576040517f08c379a0000000000000000000000000000000000000000000000000000000008152600401610a049061134a565b60405180910390fd5b3373ffffffffffffffffffffffffffffffffffffffff166000600183610a33919061129b565b81548110610a4457610a436112cf565b5b906000526020600020906003020160020160009054906101000a900473ffffffffffffffffffffffffffffffffffffffff1673ffffffffffffffffffffffffffffffffffffffff1614610acc576040517f08c379a0000000000000000000000000000000000000000000000000000000008152600401610ac390611755565b60405180910390fd5b82826000600184610add919061129b565b81548110610aee57610aed6112cf565b5b90600052602060002090600302016001019182610b0c929190611780565b505050505050565b60008181548110610b2457600080fd5b9060005260206000209060030201600091509050806000018054610b4790611399565b80601f0160208091040260200160405190810160405280929190818152602001828054610b7390611399565b8015610bc05780601f10610b9557610100808354040283529160200191610bc0565b820191906000526020600020905b815481529060010190602001808311610ba357829003601f168201915b505050505090806001018054610bd590611399565b80601f0160208091040260200160405190810160405280929190818152602001828054610c0190611399565b8015610c4e5780601f10610c2357610100808354040283529160200191610c4e565b820191906000526020600020905b815481529060010190602001808311610c3157829003601f168201915b5050505050908060020160009054906101000a900473ffffffffffffffffffffffffffffffffffffffff16908060020160149054906101000a900460ff16905084565b60405180608001604052806060815260200160608152602001600073ffffffffffffffffffffffffffffffffffffffff1681526020016000151581525090565b600080fd5b600080fd5b600080fd5b600080fd5b600080fd5b60008083601f840112610d0057610cff610cdb565b5b8235905067ffffffffffffffff811115610d1d57610d1c610ce0565b5b602083019150836001820283011115610d3957610d38610ce5565b5b9250929050565b60008060208385031215610d5757610d56610cd1565b5b600083013567ffffffffffffffff811115610d7557610d74610cd6565b5b610d8185828601610cea565b92509250509250929050565b600081519050919050565b600082825260208201905092915050565b60005b83811015610dc7578082015181840152602081019050610dac565b60008484015250505050565b6000601f19601f8301169050919050565b6000610def82610d8d565b610df98185610d98565b9350610e09818560208601610da9565b610e1281610dd3565b840191505092915050565b60006020820190508181036000830152610e378184610de4565b905092915050565b600082825260208201905092915050565b6000610e5b82610d8d565b610e658185610e3f565b9350610e75818560208601610da9565b610e7e81610dd3565b840191505092915050565b600073ffffffffffffffffffffffffffffffffffffffff82169050919050565b6000610eb482610e89565b9050919050565b610ec481610ea9565b82525050565b60008115159050919050565b610edf81610eca565b82525050565b60006080830160008301518482036000860152610f028282610e50565b91505060208301518482036020860152610f1c8282610e50565b9150506040830151610f316040860182610ebb565b506060830151610f446060860182610ed6565b508091505092915050565b60006020820190508181036000830152610f698184610ee5565b905092915050565b600081519050919050565b600082825260208201905092915050565b6000819050602082019050919050565b60006080830160008301518482036000860152610fba8282610e50565b91505060208301518482036020860152610fd48282610e50565b9150506040830151610fe96040860182610ebb565b506060830151610ffc6060860182610ed6565b508091505092915050565b60006110138383610f9d565b905092915050565b6000602082019050919050565b600061103382610f71565b61103d8185610f7c565b93508360208202850161104f85610f8d565b8060005b8581101561108b578484038952815161106c8582611007565b94506110778361101b565b925060208a01995050600181019050611053565b50829750879550505050505092915050565b600060208201905081810360008301526110b78184611028565b905092915050565b600080600080604085870312156110d9576110d8610cd1565b5b600085013567ffffffffffffffff8111156110f7576110f6610cd6565b5b61110387828801610cea565b9450945050602085013567ffffffffffffffff81111561112657611125610cd6565b5b61113287828801610cea565b925092505092959194509250565b6000819050919050565b61115381611140565b811461115e57600080fd5b50565b6000813590506111708161114a565b92915050565b60006020828403121561118c5761118b610cd1565b5b600061119a84828501611161565b91505092915050565b6111ac81610ea9565b82525050565b6111bb81610eca565b82525050565b600060808201905081810360008301526111db8187610de4565b905081810360208301526111ef8186610de4565b90506111fe60408301856111a3565b61120b60608301846111b2565b95945050505050565b600081905092915050565b82818337600083830152505050565b600061123a8385611214565b935061124783858461121f565b82840190509392505050565b600061126082848661122e565b91508190509392505050565b7f4e487b7100000000000000000000000000000000000000000000000000000000600052601160045260246000fd5b60006112a682611140565b91506112b183611140565b92508282039050818111156112c9576112c861126c565b5b92915050565b7f4e487b7100000000000000000000000000000000000000000000000000000000600052603260045260246000fd5b7f446f6d61696e206e6f7420726567697374657265640000000000000000000000600082015250565b6000611334601583610d98565b915061133f826112fe565b602082019050919050565b6000602082019050818103600083015261136381611327565b9050919050565b7f4e487b7100000000000000000000000000000000000000000000000000000000600052602260045260246000fd5b600060028204905060018216806113b157607f821691505b6020821081036113c4576113c361136a565b5b50919050565b7f446f6d61696e20616c7265616479207265676973746572656400000000000000600082015250565b6000611400601983610d98565b915061140b826113ca565b602082019050919050565b6000602082019050818103600083015261142f816113f3565b9050919050565b7f4e487b7100000000000000000000000000000000000000000000000000000000600052604160045260246000fd5b60008190508160005260206000209050919050565b60006020601f8301049050919050565b600082821b905092915050565b6000600883026114c77fffffffffffffffffffffffffffffffffffffffffffffffffffffffffffffffff8261148a565b6114d1868361148a565b95508019841693508086168417925050509392505050565b6000819050919050565b600061150e61150961150484611140565b6114e9565b611140565b9050919050565b6000819050919050565b611528836114f3565b61153c61153482611515565b848454611497565b825550505050565b600090565b611551611544565b61155c81848461151f565b505050565b5b8181101561158057611575600082611549565b600181019050611562565b5050565b601f8211156115c55761159681611465565b61159f8461147a565b810160208510156115ae578190505b6115c26115ba8561147a565b830182611561565b50505b505050565b600082821c905092915050565b60006115e8600019846008026115ca565b1980831691505092915050565b600061160183836115d7565b9150826002028217905092915050565b61161a82610d8d565b67ffffffffffffffff81111561163357611632611436565b5b61163d8254611399565b611648828285611584565b600060209050601f83116001811461167b5760008415611669578287015190505b61167385826115f5565b8655506116db565b601f19841661168986611465565b60005b828110156116b15784890151825560018201915060208501945060208101905061168c565b868310156116ce57848901516116ca601f8916826115d7565b8355505b6001600288020188555050505b505050505050565b7f6d6573736167652073656e646572206973206e6f7420646f6d61696e206f776e60008201527f6572000000000000000000000000000000000000000000000000000000000000602082015250565b600061173f602283610d98565b915061174a826116e3565b604082019050919050565b6000602082019050818103600083015261176e81611732565b9050919050565b600082905092915050565b61178a8383611775565b67ffffffffffffffff8111156117a3576117a2611436565b5b6117ad8254611399565b6117b8828285611584565b6000601f8311600181146117e757600084156117d5578287013590505b6117df85826115f5565b865550611847565b601f1984166117f586611465565b60005b8281101561181d578489013582556001820191506020850194506020810190506117f8565b8683101561183a5784890135611836601f8916826115d7565b8355505b6001600288020188555050505b5050505050505056fea2646970667358221220952345aa9ba6e5d4e0e16b6e81a588db6f3cd70b1ffb77818490a0ecb54dc5ba64736f6c634300081c0033",
  "linkReferences": {},
  "deployedLinkReferences": {}
}